:04000000803118280B
:100008007E14803120007F08F4000B1F1328210084
:10001800101F13282000101F132880311E20740879
:100028002000FF007E10090080311A287E10200071
:10003800803183288031BB2080317108F30070083B
:10004800F20000307302CD3003197202031C2F280E
:1000580022008C16312822008C12013073029A304B
:1000680003197202031C3B2822008C143D2822002D
:100078008C1002307302673003197202031C472880
:1000880022000C15492822000C1103307302343069
:1000980003197202031C532822008E1655282200C9
:1000A8008E1220001013080022008C018D018E0191
:1000B800113021008C00F0308D00DF308E00CF3001
:1000C80023008E00F0308D0011308C0024008D014B
:1000D8008C018E012100951725008C018D018E0160
:1000E8000800033028009E009D019F0160309B009E
:1000F8009A0120001111D03028009C00080080319E
:100108009D2080318B170B1704308031902080316F
:100118008031C12080318F28F6007608F500F50D72
:10012800F50D21001D087506833975069D001D14FF
:1001380008008031582080318031B42080318031EE
:10014800752080318031A9200800013021009D00F0
:10015800F0309E0048309F009B019C01101708005A
:1001680068302100990098012200960108002100BA
:100178001C08F1001B08F000080021009D1408006D
:020000040001F9
:06000E00FC3FFF3F9F3F95
:00000001FF
